:2000000041C059C058C052C156C055C054C053C052C051C08F3EAA7E313A2E7EB57E907ED9
:20002000A63A9F7CF1473F0C9B7C217C9F7D0F7E2E3A887E2F3A8B7EB776F0433F7C3E7834
:20004000DF7C9B6CF860B94E3F7EE003BD5EBF569F70B776B77E5C46BF7E9F7201020403A4
:20006000000001020403000401030204010302000001020403010204030004010302000044
:200080000401030211241FBECFE9CDBF10E0A0E6B0E0E2E4F3E002C005900D92A036B107DD
:2000A000D9F710E0A0E6B0E001C01D92A436B107E1F7F8D044C1A4CF17BA0895982F815446
:2000C0008A3158F4E92FFF27E7FDF095EE0FFF1FEE56F0402591349111C0892F80538A3052
:2000E00018F020E030E00AC0E92FFF27E7FDF095EE0FFF1FE851F04025913491C901089511
:200100002F923F925F926F927F928F929F92AF92BF92CF92DF92EF92FF920F931F93DF93BC
:20012000CF9300D000D00F92CDB7DEB719821A821B821C821D82AA2464E0262E312C51E0FE
:20014000852E912CE199FECFE199FECFAEBAE09A8DB3882309F48FC0B1DF592E569456949D
:200160009C0145E0369527954A95E1F73FE1632E6222EE24FF242FE1722E78228A818983B4
:200180008B818A838C818B838D818C83E114F10411F45D820BC021E0E216F10411F46D8293
:2001A00005C032E0E316F10421F47D82CC24DD2452C01D82FBCFC80164E170E0ACD09C0183
:2001C000FC01E45AFF4FB490FC01E059FF4F449165E070E0A0D0FB0181E090E08C0F9D1FD0
:2001E000E80FF91FE081F0E0C90165E070E093D09101281B390B022E02C0F595E7950A944E
:20020000E2F7E0FF1AC08B2D8295807F842B282F2F70A40102C0440F551F2A95E2F79A0178
:2002200082958F70A40102C0440F551F8A95E2F7CA01822B87BB28BB01C017BA0F5F1F4F77
:20024000003F110509F0B7CF0894C11CD11C54E1C516D10419F000E010E0ADCF0894E11C91
:20026000F11C84E0E816F10409F088CFA39490E4A91609F067CF0F900F900F900F900F9016
:20028000CF91DF911F910F91FF90EF90DF90CF90BF90AF909F908F907F906F905F903F90BA
:2002A0002F90089528D008DF2BDFFECF1F920F920FB60F9211248F939F93AF93BF93809146
:2002C000600090916100A0916200B09163000196A11DB11D8093600090936100A093620056
:2002E000B0936300BF91AF919F918F910F900FBE0F901F90189583B7816083BF8FB583608D
:200300008FBD89B7826089BF12BE789417B886B1876886B90895AA1BBB1B51E107C0AA1F1D
:20032000BB1FA617B70710F0A61BB70B881F991F5A95A9F780959095BC01CD010895F89409
:02034000FFCFED
:00000001FF
