:100000003CC054C053C020C151C050C04FC04EC0AE
:100010004DC04CC074C054C056C058C05AC05CC01B
:100020005EC060C062C064C06DC06FC06EC070C092
:1000300072C074C076C078C07AC07CC07EC080C0F8
:1000400082C060C062C064C069C065C06AC06CC064
:100050006EC070C072C074C076C054C056C055C067
:1000600075C053C076C051C077C04FC06FC043C089
:1000700070C072C04DC049C048C011241FBECFE936
:10008000CDBF10E0A0E6B0E0E2EDF2E002C00590E6
:100090000D92AE36B107D9F710E0AEE6B0E001C080
:1000A0001D92A637B107E1F70ED111C1A9CF17BA3A
:1000B0000895FC018333910508F5E65FFF4F09942D
:1000C00023E030E04BC027E030E048C02FE030E0D4
:1000D00045C02FE830E042C02FEC30E03FC02FEEAB
:1000E00030E03CC02FEF30E039C02FEF31E036C0B8
:1000F0002FEF33E033C02FE939E030C0089521E01D
:1001000030E02CC02FEF37E029C02FEF3FE026C0B2
:100110002DEF3FE023C027EF3FE020C02BEF3FE073
:100120001DC02FEE3FE01AC02FED3FE017C02FEBB0
:100130003FE014C02FE73FE011C02FEF3EE00EC0BC
:100140002FEF3DE00BC02FEF3BE008C02FEF39E071
:1001500005C02FE93FE002C023EF3FE0C901089549
:10016000EF92FF920F931F93CF93DF938C01C0E028
:10017000D0E081E0E82EF12CC8010C2E02C096954B
:1001800087950A94E2F780FF19C0FE01EF59FF4FEF
:100190008081282F22952F70A70102C0440F551F80
:1001A0002A95E2F79A018F70A70102C0440F551FEC
:1001B0008A95E2F7CA01822B87BB28BB81E090E0D9
:1001C00068D02196CC30D105B9F6DF91CF911F913F
:1001D0000F91FF90EF90089580916E0090916F00C5
:1001E0004F9714F110926F0010926E008091600092
:1001F0002091700030917100882349F0223331053D
:100200001CF42F5F3F4F08C0109260000DC0121603
:1002100013063CF42150304030937100209370005D
:1002200003C081E08093600080916E0090916F0028
:10023000019690936F0080936E0080917000909172
:10024000710037DF8DDF08951F920F920FB60F9266
:1002500011248F939F93AF93BF93809172009091DD
:100260007300A0917400B09175000196A11DB11D9D
:100270008093720090937300A0937400B093750004
:10028000BF91AF919F918F910F900FBE0F901F90D4
:10029000189520E639E004C0F9013197F1F701978C
:1002A0000097D1F7089583B7816083BF8FB58360CE
:1002B0008FBD89B7826089BF12BE789417B886B1A6
:1002C000876886B90895EFDFF2DE86DFFECFF89407
:0202D000FFCF5E
:0E02D20001322343342442411412211331001F
:00000001FF
